:100000006F20C00D00000000840400009604000072
:1000100000000000000000000000000000000000E0
:1000200000000000000000000000000000000000D0
:10003000B604000000000000DA200000000000000C
:10004000DA200000DA200000DA200000DA200000C8
:10005000DA200000DA200000DA200000DA200000B8
:10006000DA200000DA200000DA200000DA200000A8
:10007000DA200000DA200000DA200000DA20000098
:10008000DA200000DA200000DA200000DA20000088
:10009000DA200000DA200000DA2000000000000072
:0C00A000730050107D157DFD8280000073
:1000AC00511126C022C206C4828282441244A2404C
:1000BC00310182802A86014593F6150091C2329552
:1000CC0085810606F5F9828000000000634E05026A
:1000DC0063C305042E86AA857D5515C285466378B3
:1000EC00B6006356C00006068606E36CB6FE0145F4
:1000FC0063E4C500918D558D85820582F5FA828069
:10010C008682C93F2E8582823305A04063D70500C5
:10011C00B305B040C1B7B305B0408682653F330527
:10012C00A0408282868263C70500634905005D3763
:10013C002E858282B305B040E35B05FE3305A040FB
:10014C00513F3305B040828200003D432A876373E0
:10015C00C3029377F700BDEFADE5937606FF3D8ABA
:10016C00BA960CC34CC30CC74CC74107E36BD7FE04
:10017C0011E28280B306C3408A069702000096966D
:10018C006780A6002307B700A306B7002306B700B5
:10019C00A305B7002305B700A304B7002304B700D9
:1001AC00A303B7002303B700A302B7002302B700D1
:1001BC00A301B7002301B700A300B7002300B700C9
:1001CC00828093F5F50F93968500D58D9396050156
:1001DC00D58D61B79396270097020000969686827C
:1001EC00E78086FA9680C1171D8F3E96E374C3F89C
:1001FC00A5B7EFF2FFEA2A8401468945371501407D
:10020C00EF10A07E2285EF10305345B5B7F700E014
:10021C00D843799BD8C3379798001307F76798CBC7
:10022C0023A407009847E37FE5FE23A407001307E8
:10023C00703E98CB8280EFF2BFE67111AE8409E577
:10024C002E85453F110195B5AA8537450F0013053D
:10025C000524493593975400858F8A07A697AA855C
:10026C001354150013953700B535AA878144E38BD9
:10027C00F4FC05468945371501403EC0EF10E07689
:10028C00228569370146894537150140EF10E07525
:10029C002285AD3F85048247D9BFEFF27FE0511133
:1002AC002E8411C109E62285A9373101FDBBAA852F
:1002BC0037450F001305052432C2293D931754000E
:1002CC00818F8A07A297AA8593541500139537003E
:1002DC00113512462AC0930740061375F60F63F4C6
:1002EC00C70013054006A685F13393054006DD33A0
:1002FC00B387A4403EC22A8481470247E387E7FACA
:10030C0005468945371501403EC4EF10006E228525
:10031C00F53D0146894537150140EF10006D12453A
:10032C00F5352685E535A2478507C1BFEFF25FD7C6
:10033C00930500051305803EFD3D9305000513054F
:10034C00C05DD53D9DB3EFF2BFD593056009130594
:10035C000032D53599BBEFF2BFD49305800213055B
:10036C00004BD13D99B3EFF2BFD39305C0031305F6
:10037C00803ED1359305C0031305C02B6D3D35B3BD
:10038C00EFF21FD2E54513058070753539BBEFF2DE
:10039C003FD19305800713050032713D930580070B
:1003AC001305803E493D9305000A13054051613504
:1003BC00EDB9EFF2FFCE930560091305004BA53D97
:1003CC009305600913054038BD359305400B1305A3
:1003DC0080259535D9B9EFF2BFCC1306A00593054E
:1003EC0000051305C05D553D13058002EF10D03498
:1003FC001306A005930500051305C05D793D130593
:10040C008002EF1070331306600493054006130549
:10041C00004B613559B9EFF2BFC81306A00593051F
:10042C00000513050032953D13058002EF10D03006
:10043C001306A0059305000513050032B93D1305FD
:10044C008002EF10702F130660049305400613050D
:10045C00803EA13599B9EFF2BFC413066004930531
:10046C0080021305803E153D1306400693050005DA
:10047C001305C05D1D3515B9711122C0372400005C
:10048C001305847CEF20A02DE5BF7111B707EFBEDB
:10049C0022C037E700E0938707083CC737240000E9
:1004AC001305447BEF20A02BE5BFB70700209387F3
:1004BC0087049843D0439306170033B7E60032976E
:1004CC00D8C394C3B7F700E023A207007300203011
:1004DC00EFF21FBD1301C1FD614681456800B531C6
:1004EC00054502C002C202C4EF10205FEF100012DB
:1004FC00EF10B02B056513058538EF10502E854590
:10050C0013054003EF108079854537050010EF1077
:10051C00C07A854513050020EF1040783165EF1047
:10052C00806C37150140FD578A85130505807C804A
:10053C0002C4EF1020430544C14491478A85371506
:10054C0001407C8026C422C2EF10C04189478A85B5
:10055C00371501407C8026C422C2EF10A040A14771
:10056C008A85371501407C8026C422C2EF10803F5B
:10057C008A8537150140648002C4EF10A03E9307B2
:10058C0080028A85371501403EC4608022C2EF107C
:10059C00603D0546914537150140EF100045154566
:1005AC00EF10F0230146914537150140EF10E04361
:1005BC003724014013050440EF10000CB7070E0060
:1005CC003ECC6C008547130504402300F10202C6A3
:1005DC0002C802CA02CEEF10800C854513050440F8
:1005EC00EF10C01013050440EF10401193040440A9
:1005FC002685EF1040116DFD130504403724014092
:10060C00EF10E010130404402285EF10E0106DFD94
:10061C001301410259BCEFF2BFA8374400080EA1E8
:10062C00930404C09A0532A156A17AA1AE941CC5BC
:10063C00130424C09E202E941A20C207C18361117A
:10064C002A836396E70041677D17639CE7061AC20D
:10065C002EC0EF10C021EF10C02A2685EF10202DE0
:10066C00EF10002CEF1040228245B74700081243D0
:10067C00938707C44167BE958546A6877D1792234D
:10068C006303C70081468907E39BB7FE89E623060F
:10069C000300210119BC1AC0EF10601D024326850E
:1006AC0083556300EF10A02202432285835563001B
:1006BC00EF10E021EF10401D024396201A208357C3
:1006CC0063002317F30085472306F300D9B7EFF235
:1006DC003F9D2E846111B305D740018D36C032C2C7
:1006EC00EFF05F9D1246B3058640EFF03F9E8246C9
:1006FC00210136956FF07F9BEFF29F9A4111854552
:10070C00454502C002C202C402C6EF102059814501
:10071C000945EF10603A114785473AC20A852147CF
:10072C003EC03AC43EC6EF10E00D41016FF0FF979A
:10073C00EFF21F973735000013054581EF2020029B
:10074C00B737000093878782130720039306400670
:10075C00014681451385C1857D3D37350000130564
:10076C000583EF10D07FB73700009387C78401470C
:10077C008546014685451385C182713D373500009C
:10078C001305C585EF10B07DB737000093878787B9
:10079C00294793064006014689451385C183A53D2B
:1007AC003735000013054588EF10707BB737000014
:1007BC009387C789130740069306803E01468D45F3
:1007CC001385C184893D6FF05F8EEFF27F8D5111DF
:1007DC000146A14537150140EF10202185450545FF
:1007EC0002C002C202C4EF10604B370530008545D1
:1007FC0013050540EF10002037140140FD578A8582
:10080C00130504407C8002C4EF10C015F9578A858B
:10081C00371501407C80EF10E0143715200081451E
:10082C0013051580EF106049373500001305858AD4
:10083C00EF10F0720545EF10A02A373500001305B4
:10084C00858BEF10D071C1473EC48544B9478A856A
:10085C00371501407C8026C2EF10C010E1473EC422
:10086C008A8593070004130504407C8026C2EF1090
:10087C00600F31016FF07F83EFF29F82AA853725DD
:10088C0001409D46054613050540EF00F06A6FF0E8
:10089C00DF81EFF2FF80138481801C2085CB37270A
:1008AC00014013050740AE848945EF001075814760
:1008BC003727014009C913050740EF0090738AA040
:1008CC002300040085473E856FF02FFE75373725D2
:1008DC000140854513050540EF00906485471CA039
:1008EC008147D5B7EFF2CFFB7111DD3631353715B6
:1008FC00070013050580EF10207237350000130533
:10090C00058DEF10D065B707002083A5C7013735DB
:10091C0000001305C58FEF105062193D37340000ED
:10092C001305048EEF10B0639387C185D8278145DA
:10093C0011C3EE273735000013058591EF10F05FDA
:10094C009387C182D827814511C3EE273735000024
:10095C0013058593EF10705E9387C183D82781456B
:10096C0011C3EE273735000013054595EF10F05CE9
:10097C009387C184D827814511C3EE2737350000F2
:10098C0013054597EF10705B1305048EEF10305D67
:10099C00B7E700E0056723A0E710B7F700E0D843FE
:1009AC00799BD8C31307703E98CB23A407002D471F
:1009BC0098C3892913066004930580021305803EB1
:1009CC00EFF0BF8D13064006930500051305C05DBF
:1009DC00EFF0BF8CDD3B3735000013054599EF1068
:1009EC0010580546A14537150140EF1000009385BE
:1009FC00A18009453E84713D9384A1806DD98E20E0
:100A0C00373500001305C599EF1030539A20930524
:100A1C00F03F131527003A950A05EFF02FEB7905F7
:100A2C009386C1869387C18688C23EC00546A14580
:100A3C0037150140EF00707B9385A1800945913DEE
:100A4C009E209305F03F139547001D8DEFF00FE8A6
:100A5C0082471305850288C3E92185453715014076
:100A6C00EF00107893870181982B3335A000631227
:100A7C00A7028146014794C7D8C7B42B3946982B97
:100A8C00636AD60609668A061306867DB296944278
:100A9C008286984703A3C700B70500209385850479
:100AAC009441D041B365670081E594C7D0C7F1B7D5
:100ABC003387E640B3B6E600330666406315D600CE
:100ACC00A546E3FCE6FA88AB4DBF0DC70547B8ABAE
:100ADC0015A00D47B8AB3707002013078704104348
:100AEC00544390C3D4C339A02DEF0947B8ABB83BDE
:100AFC000507B8BB83A681871384818799E2EF0031
:100B0C00E06E104085466312D60223200400EFF0FD
:100B1C005F8A93870181A388070023990700014608
:100B2C00914537150140EF00506C1440894763978D
:100B3C00F600EF00501585472394F18214408D4741
:100B4C006397F60085472394F182EF00102018403C
:100B5C009147E31DF7EC85472394F182EF00902039
:100B6C00F1B53707002013078704104394434C4317
:100B7C00D843B306D6403335D6003387E540098FCA
:100B8C006347E00025FB1307F07CE375D7F61147AC
:100B9C00B8AB90C3CCC3B9BF194715BF19E3154700
:100BAC003DB73707002013078704104394434C4389
:100BBC00D843B306D6403335D6003387E540098F8A
:100BCC006347E00005FB1307703EE375D7F21D4742
:100BDC00C1B72147EDBD19E32547D5BD3707002027
:100BEC0013078704104394434C43D843B306D640B1
:100BFC003335D6003387E540098F6348E000E31BAB
:100C0C0007EE1307703EE377D7EE1D47B8AB983B62
:100C1C00050798BBBDBFA389070029474DBDB43B51
:100C2C00A38807002D47E39706EA354765B5E31F10
:100C3C0007E83707002013078704104394434C43FD
:100C4C00D843B306D6403335D6003387E540098FF9
:100C5C006348E000E31007EA1307301FE37CD7E892
:100C6C0031473DB73547BAAB71B5E31107E63707E6
:100C7C00002013078704104394435843CC43B30616
:100C8C00D6403336D6000D8F118F6348E000E31346
:100C9C0007E61307703EE37FD7E439470DBD238980
:100CAC00070089BD9387018101478146D8C7D8C306
:100CBC0094C394C723A80700370732009387018792
:100CCC001307470698C3239207009387C18523A077
:100CDC00070023A2070023A40700238607002397FD
:100CEC0007009387C18223A0070023A2070023A437
:100CFC00070023860700239707009387C18323A04F
:100D0C00070023A2070023A40700238607002397CC
:100D1C0007009387C18423A0070023A2070023A404
:100D2C00070023860700239707008280EFF24FB756
:100D3C00373401405111130504C08145EF10600B8D
:100D4C00130504C08145EF10400991473714014049
:100D5C007C80C1473EC48A858547130504803EC20A
:100D6C00EF0050400146914513050480EF00F04719
:100D7C0031016FF08FB3EFF2AFB293074006AA8444
:100D8C0002211305400663E4B70013F5F50FA285A5
:100D9C00EFF04FB293054006EFF04FB3AA85420532
:100DAC0041816373A400A285AEA037350140C20512
:100DBC00C181130505C0EF1080086FF00FAFEFF283
:100DCC002FAE71112A8491E185450A2032C0EFF0D3
:100DDC006FAE0246AA853285EFF0CFAF7D15C167A5
:100DEC006364F5001385F7FF93150501C181373551
:100DFC0001404EA00146130505C0EF10E0001101A3
:100E0C006FF0AFAAEFF2CFA9370732009384C188F5
:100E1C00130747060565130141FD98C085451D471D
:100E2C0013054580DAA002C802CA02CC02C202C471
:100E3C002316010002CE02D002D202D4EF001066BB
:100E4C0061473715014091463ACC0C080D47130504
:100E5C000580F48036C03ACAEF00D0309A2037347F
:100E6C0001404C007D177884DA20130504C023154B
:100E7C00010078822313010023060100EF00B06704
:100E8C001307000682463ACEBA206C08130504C03C
:100E9C002310D1022311E10202D202D4EF00906A96
:100EAC00A145130504C0EF0030788545130504C037
:100EBC00EF00F0758545130504C0EF009073854570
:100ECC00130504C0EF0070711385C1888145653529
:100EDC0037167A001385C188130606209305200364
:100EEC00F93D835704C0858B91C3893523AE0186A8
:100EFC0023A401881301C1026FF02F9B094723A47F
:100F0C00E188828003A7C1879387818801E7054721
:100F1C0098C382800947EDBF03A5C187133515001F
:100F2C008280EFF2EF979387818898435111138455
:100F3C00C18711CB984323A007008547630FF700A7
:100F4C0089476300F70E1C400547638AE70E094783
:100F5C006382E71431016FF04F951C40EDF7B73702
:100F6C000140938407C083D707C0858B95E79147D1
:100F7C007C8037150140E1473EC48A858D471305B7
:100F8C0005803EC2EF00101E85452685EF00706679
:100F9C0085452685EF0070641387C1825427371668
:100FAC007A001306062081C60317E70015E79305A0
:100FBC00803E1385C188213583A5C1861307400661
:100FCC006354B7009305400693F5F50F1385C1885C
:100FDC005D3389471CC085BF930520031385C188E9
:100FEC00F93B1387C1835427814591C26E2703A710
:100FFC00C186BA95130740066354B70093054006A3
:10100C0093F5F50F1385C188BD33B707002093877F
:10101C0087049043D4439387018890C3D4C38547F6
:10102C0055BF81451385C188B933B737014083D784
:10103C0007C0858B91C3DD392320040029B7938722
:10104C00C184D82715C7F227B707002093878704D8
:10105C00938601889843CC439C42D442B307F74013
:10106C003337F700B386D5406394E600E3E4C7EE6C
:10107C0037167A0085651306062093858538138507
:10108C00C188353B83C5C1861385C188ED3189473D
:10109C001CC0C9B583A5C1869307400663D4B700AD
:1010AC009305400693F5F50F1385C188E9315DB5BD
:1010BC0003A7C1878947631BF700EFE27FFEAA8570
:1010CC001385C188EFF03FCB6FE03FFE828037077E
:1010DC0032009387C1881307470698C323920700F1
:1010EC0082805C2599CB3E2163E8F5005E2163F399
:1010FC00F500AE87C207C1837EA58280502519E218
:10110C0009458280EFE2DFF91E21374700081304FE
:10111C0007C09A073E948315E5001620611132C270
:10112C003EC0AA841145638FD504EF004074EF00D4
:10113C00407D2285EF00A07FEF00807EEF00C07421
:10114C008247374700081246130707C4C1653E970C
:10115C00A286FD158A226383A50001468906E39BBE
:10116C00E6FE3EC2094519CEEF006070EE242285E2
:10117C00EF00E07511472AC092476308E500EF00C5
:10118C00A070024521016FE05FF23747000813079A
:10119C0027C0EE24BA973E853EC2EF0040732AC0AA
:1011AC00EF00806E92471A209E23E1BFEFE25FEFC3
:1011BC00AA841305803EEF00305801446356940214
:1011CC000546914537150140EF003002EFF0AF971F
:1011DC000146914537150140EF0030011305800C95
:1011EC00EF0090550504D9BF6FE03FECEFE25FEBE9
:1011FC00EFF09FD2014611E10546914537150140AC
:10120C00EF00A07E3704002093078405B82B854798
:10121C00130484056316F700EFF08F96EFF09FCE62
:10122C0038289147631EF700373500001305059EDB
:10123C00EF10E052EFF0AF9523AA0188EFF01FCC2E
:10124C0038289D476318F70293874189984305070F
:10125C0098C3EFF0EF920546914537150140EF002A
:10126C00C0781545EF00504D0146914537150140AA
:10127C00EF00A0773828A5476315F70483A74189A9
:10128C000547938441896396E700054523ACF186B5
:10129C00313F9C4009476396E700094523ACF18632
:1012AC0031379C400D476396E7000D4523ACF18622
:1012BC00F53D9C4011476396E700114523ACF18640
:1012CC00F5353828A9476318F700014691453715BD
:1012DC000140EF0080713C283147639CE7023838AD
:1012EC0095476310F704EFF0CF8CEFF08F8CEFF095
:1012FC004F8CEFF00F8C9307800873B007300F10F2
:10130C000000B707EFBE37E700E0938707083CC73C
:10131C0001A039476397E700EFF01FC019C1EFF048
:10132C00CFCA6FE09FD8EFE2BFD75C2551112AC01E
:10133C002EC432C2814491C3662537040020930722
:10134C008405B82B894713048405631AF7003735D5
:10135C0000001305859EEF108040EFF06F82382857
:10136C00B147631FF71092452685EFE03FD6303822
:10137C00A245AA84373500001305059FEF10E03B0A
:10138C0038388547631BF7028504D14763D9970C1E
:10139C00EFF06F84D1441245A685EFE0BFD19315D1
:1013AC0005010245C181EFF0DFD32C383735000041
:1013BC002686130505A0EF10403838388947631F7F
:1013CC00F70023AC0186EFE0DFFE014691453715AF
:1013DC000140A308040023190400012D38388D475F
:1013EC00631AF702854763DF9706FD14EFE0BFF63B
:1013FC001245A685EFE01FCC931505010245C1816E
:10140C00EFF03FCE2C38373500002686130585A12A
:10141C00EF10A032383891476319F70437350000C4
:10142C00130505A3EF10A0331305803EEF00D03059
:10143C0081473EC2638BF402054691453715014046
:10144C006D23EFE05FF20146914537150140712B9A
:10145C001305C012EF00502E92478507D9BFEFE05D
:10146C009FEF15BFEFE03FFB61B738389547631925
:10147C00F700EFE05FFEEFE01FFE0245EFF01FC844
:10148C0031016FE09FC2EFE2BFC19387C182DC27BD
:10149C0099C79387C1828397E700054691E301467C
:1014AC00914537150140912337040020930784059B
:1014BC00B82B894713048405631AF70037350000ED
:1014CC001305859EEF10A029EFE09FEB3828B1475C
:1014DC00631BF7062C38373500001305C59AEF103F
:1014EC00C025383885476313F7029387C182DC2700
:1014FC0099C79387C1828397E700814591E385451E
:10150C001385C182EFF0FFBDEFE05FE23838894709
:10151C00631FF70023AC0186EFE0BFE9014691455C
:10152C0037150140A3080400231904007D2938381D
:10153C009547631AF700EFE01FF2EFE0DFF1138538
:10154C00C182EFF0BFBB6FE05FB6EFE27FB5B7359E
:10155C00000015469385C59B1385C183EFF0BFDC56
:10156C006FE0BFB4EFE2DFB3B73500001306200322
:10157C009385059D1385C184EFF0FFDA6FE0FFB210
:10158C00EFE21FB2371402401C403707FFF8414509
:10159C0093E717001CC05C40F98F5CC01C403707F8
:1015AC00F7FE7D17F98F1CC01C403707FCFF7D1719
:1015BC00F98F1CC05C4041777D17F98F5CC0B70771
:1015CC009F001CC4012D1C4C93E707021CCCB717C1
:1015DC00014003A70740938607401377F7F023A039
:1015EC00E74003A707401367070823A0E740894794
:1015FC009CCAB72702409843719B98C3984398C3E1
:10160C005C4093E707025CC06FE03FAAEFE25FA982
:10161C00371702405C43370400209146B18B13040A
:10162C00C4016385D700A1466382D704B7376E0126
:10163C00938707601CC0B7160240DC4208409183B8
:10164C0013F7F700B70700209387C700BA978C23CE
:10165C00DC4293F5F50F93F707083357B50081E794
:10166C00EFE05FA72A8718C06FE03FA45C43B77711
:10167C00DC02938707C07DBFB727014093870740E3
:10168C00631EF500EFE2DFA1854513050020A925B7
:10169C0081451305002089256FE03FA182805C41C4
:1016AC003707F1FF1307F7EF7D8FDC419441A20759
:1016BC00D58FD98F5CC11C4537F7F1FF1307D77F46
:1016CC00D4457D8F9C49D58F94458606D58FD98F6F
:1016DC001CC55C55370710FF7D177D8FDC29FD1766
:1016EC0093F7F70FD207D98F5CD582801C4589C53B
:1016FC0093E717001CC58280F99BEDBF1C4593E74F
:10170C0087001CC5828008450D81058982801C4597
:10171C0093E747001CC582800845098105898280B2
:10172C001C4591C537075000D98F1CC582803707DF
:10173C00B0FF7D17F98FD5BFA54763F8B7041387A2
:10174C0065FF931717008322C500BA971D43331307
:10175C00F3001343F3FF33735300B397F600B3E76F
:10176C0067005CC5994763E3C7047D169317260091
:10177C003E965859FD47B397C70093C7F7FFF98FAB
:10178C00B395C500DD8D4CD982809397150003234A
:10179C000501AE971D473317F7001347F7FF337753
:1017AC006700B397F6005D8F18C96DBFB14763E250
:1017BC00C7026516931726003E961859FD47B39736
:1017CC00C70093C7F7FFF98FB395C500DD8D0CD912
:1017DC0082804D161317260054553A96FD47B39741
:1017EC00C70093C7F7FFF58FB395C500DD8D4CD5BA
:1017FC008280684542054181828008416D8D333578
:10180C00A00082805841032305004C453706014057
:10181C00930706403E979346F3FFB1C583250640D8
:10182C00F58D2320B640D043F18ED4C31443B3E6D8
:10183C00660014C3184190479346F7FF758E90C706
:10184C00D047F18ED4C7144541466399C6009447DE
:10185C00D98E94C7D447558FD8C78280B6979443F6
:10186C00558F98C382801C43F58F1CC38280B707A9
:10187C00674537270240938737125CC3B797EFCD84
:10188C009387B79A5CC38280372702401C4B93E73F
:10189C0007081CCB8280372702405C470545858BA7
:1018AC0091E748474189133515000D058280EFE219
:1018BC002FFF2A84CD3785476318F50019E01545AD
:1018CC0029A0D13F7D14C5BF7DD86FE00FFEEFE29C
:1018DC002FFD7111AA8409652EC0D13F9147824515
:1018EC00631EF500372402401C48096593E7170076
:1018FC001CC88EA06D3F1C48F99B1CC811016FE0E1
:10190C00CFFAB7066745B72702409386361237974A
:10191C00EFCDD4C31307B79AD8C3D4D3D8D382800E
:10192C00372702401C4BA166D58F1CCB8280B70792
:10193C0000F8AA97116763F6E702B7270240984BA5
:10194C00B7060200558F98CBC8CB984B136707048A
:10195C0098CBD847058B75FF984B8176FD16758F04
:10196C0098CB8280944593F7060193F2F60081C7D9
:10197C00DC41B3E2F20083D3050093F7F30FA5C368
:10198C0003230500611122C226C081471304800283
:10199C009304800405473316F70033F7C300631232
:1019AC00E602939527003D473317B7001347F7FF1F
:1019BC0033736700B395B20033E36500639D860013
:1019CC0050C985072147E397E7FC124423206500A3
:1019DC00824421018280E39696FE10C9DDB7828095
:1019EC0008456D8D3335A000828019C20CC98280E8
:1019FC004CC98280370301400327430093173500FD
:101A0C0063D00702B707C0FFF517F98F3707000738
:101A1C00D98FD9CD370700F07D17798DC98F49A89B
:101A2C00635D0500B707E0FFED17F98F3707000777
:101A3C00D98FBDCD06050581D5B7B70730009316F4
:101A4C0005013376F500C1826313F602370600F9FF
:101A5C007D16B377C70003274300798E2322C3007A
:101A6C00A1C95581131745003395E60045BF93175F
:101A7C00B50063D407029357050113F6F7008D47A1
:101A8C00B397C70093C7F7FFF98F37070007D98FB4
:101A9C0085C1135755011207C1BF558112053395E6
:101AAC00A6009347F5FFF98F37070007D98FBDF5CF
:101ABC00370701405CC38280370701401447860515
:101ACC008D47B397B70093C7F7FFF58F1CC71C471B
:101ADC00B315B500DD8D0CC7828023ACA188828044
:101AEC00EFE20FDCB77700409843759B98C398439F
:101AFC001367270098C3B7F700E003A707D1136754
:101B0C00470023A8E7D003A707D1118B45C3930740
:101B1C00800873B007300F100000B707014083A492
:101B2C00474003A7074083A64740558F23A2E740B1
:101B3C0037F400E0032704D1832704D14D451377F4
:101B4C00070293E787022328F4D0832704D193F765
:101B5C00F7FDD98F2328F4D0832704D193E787008E
:101B6C002328F4D097E0FF1FE7800049832704D196
:101B7C004D4593E787002328F4D097E0FF1FE780BB
:101B8C00A047832704D1918BA1C3B707014023A29F
:101B9C0097409307800873A0073037F700E083273E
:101BAC0007D1ED9B2328F7D06FE02FD003A707D1E7
:101BBC001367070123A8E7D09307800873B0073099
:101BCC000F1000008144ADB7832704D1BD9B23289F
:101BDC00F4D0C1B7371702401C430E0593F777F0CA
:101BEC005D8D08C38280B7160240DC424177130733
:101BFC00F77FF98F5D8DC8C28280EFE26FCA37170D
:101C0C0002405C4391462A84B18B6385D700A14680
:101C1C006380D708B7376E01938707601CC0B7166F
:101C2C000240DC42918313F7F700B707002093873B
:101C3C004703BA978C23DC42184093F5F50F93F7C2
:101C4C0007083355B70081E73A85EFE0AFC848C0C5
:101C5C0008C448C4B7170240DC438D46AD83FD8BE6
:101C6C0013D737008A07F18BD98F13F6370113F787
:101C7C00370063F4C600138747FFB707002093872C
:101C8C000702BA978C23EFE0EFC408C86FE0EFC1EE
:101C9C005C43B777DC02938707C049B799C5371700
:101CAC0002401C4F5D8D08CF8280B7170240984FC1
:101CBC001345F5FF798D88CF828099C5371702407F
:101CCC005C4F5D8D48CF8280B7170240D84F1345CB
:101CDC00F5FF798DC8CF828099C5371702405C47D4
:101CEC005D8D48C78280B7170240D8471345F5FF72
:101CFC00798DC8C782801E2137370140130707C072
:101D0C00C207C1836306E500370700406316E50090
:101D1C00BA2193F7F7F8D98FFA2193F7F7CFC207C7
:101D2C00C183D98F1EA1DE215EB59E211EB5B737AA
:101D3C000140938707C06314F5009C251EB98547A5
:101D4C005EA982801E3165771307F7CFC207C18366
:101D5C00BD9BC207C1831EB11E31562103D3850022
:101D6C00C20713960601162DC18393F7F7FD758FE5
:101D7C0096214182A206558FB62142074183B3E6D4
:101D8C0066009206D58FB7360140C207938606C00F
:101D9C00C183631ED502B62593F7F7F703D3C500AD
:101DAC009206D58FD621C207C183920693F7F7FB13
:101DBC00D58FFD769386F63FF18EF225C207C1834F
:101DCC00336666000A06D18E13960601418252A133
:101DDC001AADFA2118DD1EB182801E2189C593E748
:101DEC0017001EA18280C207C183F99BC207C18361
:101DFC00CDBF8357450491C52167D98F2312F504B4
:101E0C008280C607C583DDBF0EB552A982801E2114
:101E1C0089C593E707081EA18280C207C18393F787
:101E2C00F7F7C207C183C5BF1A2DFD779387F77FDC
:101E3C00F98FA205CD8FC207C1831EAD82800CDD48
:101E4C008280EFE2EFA51629F577FD17F58FF621C5
:101E5C00DA252111D58F1EA95625FD779387379F3B
:101E6C00F58FD6212A842EC0D58F9625D58FB625F1
:101E7C00D58F5EA55E29C207C18393F7F7CF5D8F1F
:101E8C005AA94800EFF07FD7B747014093870780E6
:101E9C0082456312F406C2475A24139517003E95E7
:101EAC0042070E0541873E958C4163580704860511
:101EBC00EFE04FA2930540062AC0EFE0AFA18247A6
:101ECC0093144500930540063E85EFE06FA35E2416
:101EDC00C207C18763D507020E059305400613059B
:101EEC002503EFE02F9F1D89C98CC204C18006A475
:101EFC0061016FE08F9BB24745B78A0555BF12054C
:101F0C009305400613052503EFE0CF9C3D89E9BFFF
:101F1C0091C55E250967D98F5EA582805A25F97710
:101F2C00FD17F98FD5BF93F5F51F4EA182800A21BD
:101F3C006D8D3335A000828037F700E054433111AA
:101F4C0093077100F99A54C39306703E14CB232463
:101F5C000700AD4614C33707002093068704904250
:101F6C00D442E19B90C7D4C78C47D0479356F541D8
:101F7C003303B5003335A300B385C600B306B500F3
:101F8C0023A06700D4C31307870403A307004843A7
:101F9C0083A3470063E7A3006317750014436374BE
:101FAC00D300510182800100CDB7EFE26F8FB707EC
:101FBC00002003A5C701B7157A0093850520EFE033
:101FCC006F911375F50F238FA18893175500898F87
:101FDC008A073E950E05239EA1886FE00F8DEFE2D8
:101FEC002F8C37F400E05C40AA85F99B5CC003D5CC
:101FFC00C189EFE02F8C08C8232404001C4093E710
:10200C0017001CC0B7F700E0D843058B75DF984369
:10201C00799B98C36FE06F89EFE28F882A841165F2
:10202C001111854513051502EFF05FC7854537057E
:10203C002080EFF03F9C930700047C803715014013
:10204C008D473EC28A85E147130505403EC4EFF03B
:10205C007F9122C637440140B70708006C00130576
:10206C0004803ECA02C8231C0100EFF09FDD8545A9
:10207C0013050480EFF0DFE971016FE00F83EFE2ED
:10208C002F827111AE840144635FC402B7470140D3
:10209C00138707803A859305000432C0EFF03FE9BF
:1020AC00B74701401387078002466DD533878400FC
:1020BC0083050700138507800504C205C181EFF075
:1020CC009FE60246D1B7328511016FD01FFE01A0E9
:1020DC0097E1FF1F9381C176138181FB1305000AE1
:1020EC0097E5FF1F938545F117E6FF1F130686F151
:1020FC0063FAC5008322050023A055001105910544
:10210C00E3EAC5FE171500001305859397E5FF1F3D
:10211C00938545EF17E6FF1F130686F263FAC50099
:10212C008322050023A0550011059105E3EAC5FEA5
:10213C0017E5FF1F1305C5F09385018A6377B5007A
:10214C00232005001105E36DB5FEB7220000938234
:10215C000288739002308D427390428097E2FFFFA9
:10216C00938282E993E2320073905230EFF04FC1C8
:10217C0097E2FFFF93824277739012347300203002
:10218C00411106C62EC00DCD1841AA8705C3584172
:10219C007D5511CB8546631BD7009847230007005C
:1021AC0023A207000545B240410182809847824630
:1021BC0014A39847050798C7D8437D17D8C3DDB734
:1021CC0005468A85EFF0BFEBF1BF011122CC2EC280
:1021DC0006CE26CA2A84814793050002634506026F
:1021EC009245BE95838505008DE563D8C70263D4FF
:1021FC00E702198E1305000293F526002AC089C543
:10220C0001E7930500032EC0858A81449DEAB284C0
:10221C0015A08507F1B71D8EF1BF0146E1BF8245C0
:10222C0022853AC832C63EC4EFF09FF5A24732462B
:10223C004247FD14E34590FEB2846353060081448B
:10224C00058E63C7E702A687924633879740369779
:10225C00830507009DEDB28463469004635306002A
:10226C000146F2406244D2443305F6000561828097
:10227C001D8FBA8793050003228532C83EC63AC427
:10228C00EFF01FF0B24722474246FD17E5F7BA942C
:10229C005DBF228532C63EC4EFF09FEEA2473246A8
:1022AC0085075DB78245228532C43EC2EFF05FEDF3
:1022BC00FD14224692474DB7397106DE22DC26DA30
:1022CC003EC232833A8691ED924693070003014752
:1022DC006C08FC86EFF07FEFF2506254D25421610F
:1022EC008280AA843684AE8791CA29470144631739
:1022FC00E30063D50500B307B04005448646A30947
:10230C00010213073103938666FC36C49A853E8519
:10231C0032CA3AC81AC63EC0EFD09FDEA5468247E5
:10232C0032434247524663D4A600A2463695130563
:10233C0005039306F7FFA30FA7FE9A853E8532CCC3
:10234C003ACA1AC83EC636C0EFD0DFD8B2474243AD
:10235C005247624663FD670409CC29CE9247898BAC
:10236C00B1CB9305D002268532C4EFF07FE1224633
:10237C007D169247918B85C706479307100632C48A
:10238C009305000326856311F704EFF07FDF9305B7
:10239C0080072685EFF0DFDE224609047916164702
:1023AC00924682452685EFF05FE2229535B7AA87E3
:1023BC000247A9BF82469307D0020144A38FF6FEC1
:1023CC009307E7FF3EC075B7EFF09FDB93058005E1
:1023DC00C9B70145828001458280130181FD22D05D
:1023EC0026CE06D22AC4AE82328402C681448385AC
:1023FC00020091EDA24789C781453E85EFF05FD879
:10240C00925002542685F244130181028280930774
:10241C0050026389F500224516C88504EFF05FD69B
:10242C00C24205A08387120013871200639DB70078
:10243C002245930550023AC8EFF09FD442478504D9
:10244C00BA8285026DB7DDD79306B0026389D704D3
:10245C0063C8F600930630026386D704814705A053
:10246C009306D002638AD70093060003E398D7FE45
:10247C0013872200894721A01387220085478306F2
:10248C0007001306B0026383C6046341D602130629
:10249C003002638BC602BA820145A54681A0138720
:1024AC0022006DBF138722009147D1BF1306D002C3
:1024BC006389C60013060003E39FC6FC93E727005D
:1024CC0031A005078547C1BF93E747000507E1B772
:1024DC0013162500329506053A95850203860200EF
:1024EC00130706FD9375F70FE3F4B6FE1307E0022E
:1024FC009946631EE60085028146A54503860200C7
:10250C00130606FD1377F60F63F5E50236C603874F
:10251C0002001306A006630DC70A6343E602130606
:10252C00C0046307C70A13068006630CC7088145FD
:10253C002DA813972600BA968606B29685027DBF03
:10254C00130640076306C7081306A0076302C708F3
:10255C001306C0068145631AC700038612008D4519
:10256C006314E600850291458502038602009303FD
:10257C0000061307100663C4C3001307100493036B
:10258C00700663C4C3069303500663567618930310
:10259C00700463C1C30493055004635EB61613073D
:1025AC003004E310E6EA18409303440016CA230CE7
:1025BC00E1001EC8A30C01000147BE862A862C0828
:1025CC0049A8038612008145E311E6FA890271BF1E
:1025DC008502B1BF93063006E307D6FC63CFC6066F
:1025EC00930680056303D602A9BD930630076304E6
:1025FC00D60463CBC6029306F0066305D60E93068B
:10260C00000793E74700E31ED6E291466392D50C90
:10261C00930384000C40504016CA3AC23EC01EC8F8
:10262C00AA870147C14681A893065007630BD606BB
:10263C009306800745BF1840B7360000930344004B
:10264C00938586A311C3BA85324716CA1EC8BE86A7
:10265C002A862245EFF07FB715A091466395D502E7
:10266C00930384000C40504016CA3AC23EC01EC8A8
:10267C00AA870547A9462245EFF0BFD5C243AA94C5
:10268C001E84D2427DBBB2460C4016C836C23AC03C
:10269C0011042A87854629462245EFF0FFC1AA94EA
:1026AC0041B39146639DD500930384000C40504088
:1026BC0016CA3AC23EC01EC8AA87014765BFB246B9
:1026CC000C4016C836C23AC011042A878146E1B7BD
:1026DC00B24616C80C40414636C23AC011042A878D
:1026EC0081465DBF9146639ED500930384000C40E8
:1026FC00504016CA3AC23EC01EC8AA870147A1461E
:10270C009DBFB2460C4016C836C23AC011042A8787
:10271C008146214651B70C401306840040403AC212
:10272C002A87224532C83EC02286B687A94616CAD9
:10273C00EFF07FCAAA944244A9B71301C1FD2EC879
:10274C0032CAAA851008014506C636CC3ACE3ED010
:10275C0032C0EFF09FC8B240130141028280411198
:10276C0022C426C206C61C21AA840144DC8183072C
:10277C003100050499EFA947930531000546014541
:10278C00DC81EFF0DF8F2285B2402244924441017C
:10279C0082800546930531000145EFF05F8EB387CB
:1027AC0084009C23DC81E1B7486172644661756CDE
:1027BC00745F48616E646C65720D00004E4D495F2C
:1027CC0048616E646C65720D00000000D60A000052
:1027DC00DE0A0000260C0000F40A0000A40B000026
:1027EC00220C0000A80B0000DE0B0000E20B000026
:1027FC00220C00002A0C00003A0C0000700C0000A7
:10280C00760C0000AA0C00002E5245414420434F88
:10281C004E46494720506F7765720000506F7765C0
:10282C00720000002E5245414420434F4E4649470A
:10283C0020426F6F737420456E61626C65000000FE
:10284C00426F6F737420456E61626C65000000000E
:10285C002E5245414420434F4E46494720426F6F0C
:10286C00737420506F77657200000000426F6F73B5
:10287C007420506F776572002E5245414420434FAF
:10288C004E46494720426F6F73742054696D650042
:10289C00426F6F73742054696D650000D097D0B08F
:1028AC00D181D0BDD183D0BBD0B80D00D09FD18009
:1028BC00D0BED181D0BDD183D0BBD0B8D181D18C89
:1028CC000D0000000D0A2D2D2D2D2D2D2D2D2D2D16
:1028DC002D2D2D2D2D2D2D2D2D2D2D2D2D2D2D2D1C
:1028EC002D2D2D2D2D2D2D2D2D2D2D2D2D0D000086
:1028FC00D09FD180D0B8D0B2D0B5D18220537973CB
:10290C0074656D436C6B3A25640D0A00434F4E465B
:10291C00494720506F7765722020202020202020EE
:10292C003A2025642025250D0A000000434F4E4611
:10293C00494720426F6F737420456E61626C65204D
:10294C003A2025640D0A0000434F4E464947204269
:10295C006F6F737420506F7765722020203A20259A
:10296C00642025250D0A0000434F4E46494720425E
:10297C006F6F73742054696D652020203A20256494
:10298C00206D730D0A000000476F2E2E2E0D0000D7
:10299C006C61737441444356616C75652025640009
:1029AC00436C69636B733A2025640D0A00000000C8
:1029BC0053637265656E426F6F7374506F77657297
:1029CC000000000053637265656E426F6F73745440
:1029DC00696D6500486F6C6400000000436C6963AE
:1029EC006B0D0000257320436C69636B733A2025D3
:1029FC00640D0A002B2B20436C69636B733A202502
:102A0C006420696D703A25640D0A00002D2D204359
:102A1C006C69636B733A20256420696D703A256488
:102A2C000D0A00005374617475730D00286E756C7B
:042A3C006C29000001
:082A4000B00C0000DA100000E8
:102A48000102030405060708010203040506070836
:102A580000127A000204060804080C100810182056
:102A6800102030402040608001020304050607085A
:0C2A78000102030405060708000000002E
:00000001FF
